:020000040000FA
:020000000328D3
:040002000034003492
:0A0006008316F030870007309900E0
:10001000910183128701F001F101F401F201F30172
:10002000F501F601F701F801F9018312203084008F
:100030008001840A39300406031D18280430831215
:100040009200033083169200C4308316810083121D
:100050000519282840208A20BC20013A031D362893
:10006000F90AF008193A031936282A288312790860
:100070008700831205193A28F90E051D3D283628F8
:1000800083121108F40071080310003A031956286E
:100090007108013A031954287108023A03195228C9
:1000A000F40DF40DF40DF40DF40DF40D8312203065
:1000B00084007008003A031962287008F200840A6C
:1000C000F20B5F2874088006710A043A031D6B283E
:1000D000F101F00A6C28F10A0034F800003A031923
:1000E0007E287808013A031981287808023A031912
:1000F00084287808033A0319872889280130870063
:100100008928043087008928083087008928023030
:10011000870000348312203084007008003A0319ED
:10012000A628F6000430F2000008F7000330770537
:100130006D20643026218312870119302621F70CA7
:10014000F70CF20B9628840AF60B92287108003AF5
:100150000319BB287108F5000008F7000330770584
:100160006D20643026218312870119302621F70C77
:10017000F70CF50BAE280034831220308400700891
:10018000003A0319D528F6000430F3000008F70000
:1001900003307705E920003A0319E828F70CF70C3B
:1001A000F30BC828840AF60BC4287108003A031917
:1001B000E7287108F5000008F70003307705E9200B
:1001C000003A0319E828F70CF70CF50BDD28013489
:1001D0000034F8008101F2018312FA300102031C9D
:1001E000F728F20A72087D3A031925298101831242
:1001F000071E0129051D0A29051E1329851E1C2914
:10020000EC2800307806031D2529071E052901303A
:100210002621013401307806031D2529051D0E29EC
:1002200001302621013402307806031D2529051EE0
:10023000172901302621013403307806031D2529B2
:0C024000851E20290130262101340034E5
:04024C00FC000D3075
:10025000FB00FA01FA0B2A29FB0B2A29FC0B2729A0
:02026000003468
:02400E00E4309C
:00000001FF
